:040000000C94330029
:100004000C9400000C9400000C9400000C9400006C
:100014000C9400000C9400000C9400000C9400005C
:100024000C9400000C9400000C9400000C9400004C
:100034000C9400000C9400000C9400000C9400003C
:100044000C9400000C9400000C9400000C9400002C
:10005400C0F9A4B0999282F880900A00600154001B
:100064000000F894EE27ECBBF1E0FBBFEBBFE5BF6B
:100074008DE0A2E0BB27ED938A95E9F780E094E058
:10008400A0E6ED930197E9F7EEE5F0E0859195910F
:10009400009761F0A591B59105901590BF01F0010D
:1000A40005900D920197E1F7FB01F0CFEFE5EDBF6D
:1000B400E4E0EEBFC0E6D1E00C946000EFEFEABBF1
:1000C400E0E0EBBBEFEFE7BBE0E0E8BBEFEFE4BB66
:1000D400E0E0E5BBEFEFE1BBE0E0E2BBE3BFE2BFA2
:1000E400ECBFEFBDEEBDEDBDECBDE7BDE6BDEBBDC8
:1000F400EABDE9BDE8BDE2BDE5BDE4BDE3BDE9BFE0
:10010400E5BFE4BFEAB9E0E8E8B9E0E0E0BFE6B99A
:10011400EDB9E6BFE4B3EF6FE4BBEFEFE5BB442416
:100124005524EAE0F0E04E165F0674F4A0E6B1E070
:10013400A40DB51DEC91E5BBA8EEB3E00E94A800A8
:10014400F20131962F01EDCFEACFFFCF109639F0AF
:100154008AEF90E00197F1F7A8951197C9F70895F0
:00000001FF
