:020000000C945E
:1000020041000C9400000C9400000C9400000C942D
:1000120000000C9400000C9400000C9400000C945E
:1000220000000C9400000C9400000C9400000C944E
:1000320000000C9400000C9400000C9400000C943E
:1000420000000C9400000C9400000C9400000C942E
:1000520000001027E80364000A00010000100001FC
:1000620010000100000074656D70203D20256400C1
:1000720080C00200040066000200740172000000E9
:10008200F894EE27ECBBF1E0FBBFEBBFE5BF8DE0E0
:10009200A2E0BB27ED938A95E9F780E094E0A0E621
:1000A200ED930197E9F7E4E7F0E0859195910097E8
:1000B20061F0A591B59105901590BF01F0010590F1
:1000C2000D920197E1F7FB01F0CFEFE5EDBFE4E020
:1000D200EEBFC0E6D1E00C947C00AA93E881E7B9B8
:1000E2008BE18A95F1F7369A349BFECF349AE4B1CC
:1000F200F5B10C940903E0E0EABBEBBBE7BBE8BB5C
:10010200E4BBE5BBE1BBE2BBE3BFE2BFECBFEFBDDB
:10011200EEBDEDBDECBDE7BDE6BDEBBDEABDE9BDA3
:10012200E8BDE2BDE5BDE4BDE3BDE9BFE5BFE4BFB7
:10013200EAB9E0E8E8B9E0E0E7B9E3E8E6B9E0E027
:10014200E0BFEDB9E6BFA8E00E94DD02A3E0C5DF93
:100152002F010E9451040E94CE03DF01CB01EAE08D
:10016200F7ED63E070E40E94FC030E9497032F0105
:10017200E0E6F1E0FA93EA93E8E6F0E0FA93EA9334
:10018200F2010E9451040E945E0484E00E944A022D
:1001920028960E94AB02A0E6B1E00E94CC02A2E344
:1001A200B0E00E945E03D2CFFFCFBA93AA931A9314
:1001B2000A93AA81BB8112960E945604309759F184
:1001C200AA81BB8114960E9456048F01309761F078
:1001D2000230E0E01E0798F0F80131978F01AA8102
:1001E200BB811496ED93FC93AA81BB811296ED918B
:1001F200FD913196FE93EE933197AC81A083AA8153
:10020200BB810E945604FF232AF0ED91FD913196A5
:10021200FE93EE9306C0AA81BB81EFEFFFEFED9351
:10022200FC931981088125960895BA93AA9326977B
:100232000E94630410E0AC85BD85E0E0F0E0ED9340
:10024200FC93EA89FB893196EA8BFB8B3197E49127
:100252002E2FE03009F415C1E12FE03039F42532B8
:1002620011F411E002C00E9424030AC1E130A9F492
:10027200253219F40E94240302C112E040E000E09A
:100282002D3211F401E0FCC02B3211F44BE2F8C024
:10029200203211F440E2F4C002C0E23039F450E0FE
:1002A20013E0203311F40068EBC003C0E33009F01F
:1002B200E7C0203310F02A3308F007C0AAE05A9FA3
:1002C200502DE22FE0535E0FDBC0E22FE33649F4FC
:1002D2000E942B03E889F989A481AA930E94310321
:1002E200CEC0E33741F40E942B030E9437030E94E1
:1002F2000B031E2F0AC0E03761F40E942B030E94F9
:1003020037030E9417031E2F086002600F7730E048
:1003120034C0E43611F0E93611F4046002C0E53766
:1003220031F4E4E5F0E0EE83FF8315E00CC0E8353C
:1003320011F4086003C0E83709F0A1C0EEE5F0E06F
:10034200EE83FF8314E002FF14C00E942B030E947D
:100352004103AB85AA233AF4EA85FB850E94450452
:10036200EA87FB874DE2403011F01F5F01C00B7F2F
:1003720004C00E942B030E94410300FD11C0151707
:1003820078F407FF08C002FF04C00B7F242F11502E
:1003920001C020E301C020E20E9424035150EFCFAC
:1003A200312F01FF17C03030A1F003FF06C0EE81EC
:1003B200FF812591EE83FF8305C0AE81BF812D9120
:1003C200AE83BF830E942403503009F05150315054
:1003D200EACF4BC020E3EE81FF810E945A04E887F6
:1003E200F987EE81FF813296EE83FF83E885F985F6
:1003F200AA85BB85AE17BF0750F02F5FA885B985C8
:10040200EA85FB85EA1BFB0BEA87FB87EFCF2A33E2
:1004120028F003FF02C0295F01C0295D04FD1AC054
:10042200213320F4A885B985119709F409C053171F
:1004320010F000FF01C013C020E207FF0BC020E351
:10044200006102FF07C00B7F4A930E9431035030C4
:1004520009F051500E942403503009F0515031509C
:10046200A885B985129708F0B5CF00FF08C05030B3
:1004720031F05150E0E2EA930E943103F8CF10E0EC
:10048200E0CEAC85BD850E9456040E946A04649643
:100492000895FF92F82E26970E9465040E94490350
:1004A200309719F4EFEFFFEF23C0DE0116960E949A
:1004B20041048D010E944903EE83FF83E0E0E88757
:1004C200E987DE011A960E9441040E945604FA93BB
:1004D200EA931A930A93E6EDF0E0FA93EA93DE01C7
:1004E2001A96A3DE9F01AE81BF81E0E0EC93F90191
:1004F2000E946C042A96FF900895AA93EBB3EF70C2
:10050200AE2FE881E07FEA2BEBBB8DE08A95F1F715
:10051200DA9A8DE08A95F1F7DA988DE08A95F1F70B
:1005220077C0AA93A881E9DFE881E295E883A881F0
:10053200E4DF85E88A95F1F76BC0AA93E881F0E0E1
:10054200EC58FE4FE081A981AE0FEBDF7980688025
:1005520022960895A2E00E945003ACE0E2DFA1E0FF
:100562000E945003E0E06E2E7E2E0895AA93A88189
:10057200AA3011F0791448F0E0E0EA936394A62DD2
:10058200DCDFA881AA3009F443C07394D89AA88109
:10059200C8DFD8983DC0BA93AA931A93A981BA81A9
:1005A200ED91A983BA831E2FE03019F0A12FDEDF6F
:1005B200F5CF188123960895AA93EAB3E06FEABBB8
:1005C200D29AD09AD19ADA98D898D9989880E88114
:1005D200E058E0937601E881E054E0937701A4E1EA
:1005E200B0E00E945E030E9456030E9456030E94DE
:1005F2005603A0E282DF88EC90E00197F1F7A8E2CF
:1006020090DFA4E08EDFA5E88CDFA6E08ADFA2DF20
:1006120021960895BA93AA93A991B991EE27FF273B
:100622006D91662311F03196FBCF0895BA93AA9388
:10063200AA27BB27E991F9910590002011F01196A4
:10064200FBCFFD0108952A93AD85BE85EF85F8891C
:1006520009950895E889F9893497E88BF98B08950B
:10066200AD85BE85EF85F88909950895A889B98970
:1006720014960E945604EE83FF83AE81BF810895D3
:10068200A889B98914960E945604EA87FB870895BF
:10069200DE011C960E9441040E94560408950E94A5
:1006A2009202A3E0B0E00C945E03A0E30E947E02FB
:1006B20088EC90E00197F1F70895109639F080EDFB
:1006C20097E00197F1F7A8951197C9F70895552377
:1006D20042F4503811F4E0FF04C03196691F791FCB
:1006E2006BF050E8572711F45F9373C05F3F31F00E
:1006F200660F000C57956795752F08955F9300203C
:100702000AF073C06CC050E8192E1522880F991F89
:100712009527550F879550E8072E0522660F771FFC
:100722007527550F67950895689401C0E8945F9303
:10073200F2DF703818F07F3F08F44BC056E1571BC8
:10074200AAF4519558300EF4593030F0EFEFFFEF24
:100752006FEF7FE777F91AC077275523B9F0EE0FCD
:10076200FF1F661F771F5A95D1F710C077275830A1
:1007720028F0EF2FF62F672F5850F9CF552331F07D
:1007820076956795F795E7955A95D1F700200AF483
:100792007FD05F910895689401C0E89430976040DB
:1007A2007040B1F0002426F0772312F4009470D048
:1007B200172E7EE1112032F07A95EE0FFF1F661F91
:1007C200111CF9CFEF2FF62F612D5F938ADF5F9116
:1007D2000895EE27FF27662777275F910895EFEFA9
:1007E200FFEF6FE77FEF5F910895EFEFFFEF6FE7A6
:1007F2007FE75F9108955F9386DF703821F41120BF
:100802000AF4EDCFF2CF903809F4E3CF0124089433
:10081200970B1BF4D4F30020F3CF792F1F932F9360
:100822003F934F931124112722273327442755271B
:1008320090E2AE17BF078607410730F0AE1BBF0B31
:10084200860B410B089401C08894551F221F331F49
:10085200111CAA1FBB1F881F441F9A9551F7F9014B
:10086200612D4F913F912F911F91662332F0550FC9
:10087200EE1FFF1F661F7A9543F229DF5F910895ED
:100882000024AF0DB01D0895F195E195F040089553
:10089200F09560957095E195FF4F6F4F7F4F0895EA
:1008A2006F2F660F660B762F0895ED91FC911197CD
:1008B20008950590F491E02D08957A936A93FA933E
:1008C200EA9308955A934A933A932A931A930A936E
:1008D20008955D814C813B812A81198108810895A7
:00000001FF
