:080000000C9439000C948100FE
:100008000C9400000C9400000C9400000C94000068
:100018000C9400000C9400000C9400000C94000058
:100028000C9400000C9400000C9400000C94000048
:100038000C9400000C9400000C9400000C94000038
:100048000C9400000C9400000C94000000003F0089
:1000580006005B004F0066006D007D0007007F0012
:100068006F000200040054000000F894EE27ECBB77
:10007800F1E0FBBFEBBFE5BF8DE0A2E0BB27ED934E
:100088008A95E9F780E094E0A0E6ED930197E9F717
:10009800EAE6F0E085919591009761F0A591B59118
:1000A80005901590BF01F00105900D920197E1F7B9
:1000B800FB01F0CFEFE5EDBFE4E0EEBFC0E6D1E035
:1000C8000C946600649784E1A0E0B0E0E6E5F0E017
:1000D8000E949500EFEFE4BBE0E4EBBFE2E0E5BF90
:1000E800789444245524F201DE01EE0FFF1FAE0F71
:1000F800BF1FEC91E5BBF7CFFFCFEA93FA93EFB7B9
:10010800EA93E9E0F0E0E415F50521F0F201319613
:100118002F0102C044245524E991EFBFF991E991D8
:100128001895AC0FBD1F05900D928A95E1F70895BB
:00000001FF
