:060000000C9436000C9484
:1000060000000C9400000C9400000C9400000C946A
:1000160000000C9400000C9400000C9400000C945A
:1000260000000C9400000C9400000C9400000C944A
:1000360000000C9400000C9400000C9400000C943A
:1000460000000C9400000C9400000C9400006D61FC
:1000560074696E20616B68676172690080C0020016
:10006600600162000000F894EE27ECBBF1E0FBBFF4
:10007600EBBFE5BF8DE0A2E0BB27ED938A95E9F7DC
:1000860080E094E0A0E6ED930197E9F7E4E6F0E07E
:1000960085919591009761F0A591B5910590159080
:1000A600BF01F00105900D920197E1F7FB01F0CF3A
:1000B600EFE5EDBFE4E0EEBFC0E6D1E00C946300EF
:1000C600E0E0EABBEBBBE7BBE8BBE4BBE5BBE1BBFF
:1000D600E2BBE3BFE2BFECBFEFBDEEBDEDBDECBDE5
:1000E600E7BDE6BDEBBDEABDE9BDE8BDE2BDE5BDE8
:1000F600E4BDE3BDE9BFE5BFE4BFEAB9E0E8E8B9BE
:10010600E0E0E0BFE6B9EDB9E6BFA0E1A0D06FD070
:1001160062978EE0A4E0B0E0E4E5F0E00E946C01B6
:10012600E0E0E883E983A881B9811297FCF4E0E076
:10013600EA83EB83AA81BB81509794F4EA81EA9320
:10014600A98148D0DE01149671D0A2E3B0E00E94E6
:1001560062014DD0EA81FB813196EA83FB83EACFC7
:10016600E881F9813196E883F983DDCF6296D0CFB5
:10017600FFCFAA93E881E07111F0DB9A01C0DB980A
:10018600E881E07211F0DA9A01C0DA98E881E07449
:1001960011F0D99A01C0D998E881E07811F0D89A7F
:1001A60001C0D8988DE08A95F1F7DD9A8DE08A95A1
:1001B600F1F7DD988DE08A95F1F773C0AA93A881CF
:1001C600D8DFE881E295E883A881D3DF85E88A95C0
:1001D600F1F767C0AA93E881F0E0E05AFE4FE081AC
:1001E600A981AE0FEBDF5980488022960895A2E0E0
:1001F6005AD0ACE0E3DFA1E056D0E0E04E2E5E2E12
:100206000895AA93A881AA3011F0571448F0E0E0A7
:10021600EA934394A42DDEDFA881AA3009F441C0F5
:100226005394DF9AA881CADFDF983BC0BA93AA939A
:100236001A93A981BA81ED91A983BA831E2FE03062
:1002460019F0A12FDEDFF5CF188123960895AA9322
:10025600D39AD29AD19AD09AD59AD79AD69ADD9825
:10026600DF98DE987880E881E058E0936201E881C3
:10027600E054E0936301A4E1B0E00E94620118D06B
:1002860017D016D0A0E275DF88EC90E00197F1F761
:10029600A8E294DFA4E092DFA5E890DFA6E08EDF77
:1002A600A6DF219608958ADFA3E0B0E00C946201F0
:1002B600A0E35FDF88EC90E00197F1F708951096D0
:1002C60039F080ED97E00197F1F7A8951197C9F7F6
:1002D6000895AC0FBD1F05900D928A95E1F708951C
:00000001FF
